:100000000C94C5260C94F6260C94F6260C94F62631
:100010000C94F6260C94F6260C94F6260C94F626F0
:100020000C94F6260C94F6260C94F6260C94F626E0
:100030000C94F6260C94F6260C94F6260C94F626D0
:100040000C94F6260C94F6260C94F6260C94F626C0
:100050000C94F6260C94F6260C94F6260C94937EBB
:100060000C94F6260C94B3540C948A540C94F626F3
:100070000C94F6260C94F6260C94F6260C94F62690
:100080000C94F6260C94F6260C94F6260C94F62680
:100090000C94F6260C94F6260C94F6260C94F62670
:1000A0000C94F6260C94F6260C94F6260C94F62660
:1000B0000C94F6260C94F6260C94F6260C94F62650
:1000C0000C94F6260C94F6260C94F6260C94F62640
:1000D0000C94F6260C94F6260C94F6260C94F62630
:1000E0000C94F6264F275F27E92C502FBA314C2F5E
:1000F000E92C5F274F27CD80D680E480ED80F68005
:10010000FF80088111811381428192819A81B88197
:10011000D681E081348244824E8255825E82F482AE
:10012000FD8206830F83188321832E83A576A8760C
:1001300097769B76A176DF76AC76B076B676BA7691
:10014000BE76C476C876CC76DF76D276D676DA7688
:100150005D0A002C000A4144524553533D5B005D4B
:100160000A002C000A444154413D5B005D0A002C0A
:10017000000A52573D5B005D0A002C000A564D41B3
:100180003D5B005D0A002C000A52455345543D5B1F
:10019000005D0A002C000A5048495F323D5B000AAE
:1001A000003A003A003A00543D000A2073746F7020
:1001B000766C6167203D30202C20636173652035AB
:1001C000000A00202020203A20002020203A200091
:1001D0002020203A20002020203A2000203A200031
:1001E0000A00202020203A20002020203A20002051
:1001F00020203A200020202020203A20002020200B
:1002000020203A20000A0020202020203A20000A46
:10021000000A00202020203A20002020203A200040
:100220002020203A20002020203A2000203A2000E0
:100230000A41647220203A2044415441203A20521D
:100240005720203A20564D41203A2050484932202C
:100250003A2052455345540A000A77616974696E21
:10026000670A000A2057696C6C2061726D20617406
:10027000206164726573733A24000A436F646520D9
:10028000352072656164732073746174730A000AA7
:1002900077616974696E6720666F72205265736555
:1002A0007420746F206265636F6D6520686967688C
:1002B0000A000A50726573732061206B657920749F
:1002C0006F20656E6420616E616C797365720A00DF
:1002D0000A0A203130303D206578697420746869DD
:1002E00073206D656E75000A20363D426C75652081
:1002F000283130292020204C6F77000A20353D42DC
:100300006C756520283130292020204869676800F5
:100310000A20343D477265656E202831312920203E
:100320004C6F77000A20333D477265656E20283197
:100330003129202048696768000A20323D59656CE0
:100340006C6F772028313229204C6F77005768690D
:10035000636820546573743A0A20313D59656C6CAA
:100360006F7720283132292048696768000A2054B5
:10037000657374204661696C6564000A2054657376
:1003800074205061737365640020206572726F720F
:1003900020656E636F756E746572656400093C2D2F
:1003A0002D3E0900097C09000A00457870656374D8
:1003B000656420526573756C74000A494E5055543B
:1003C000097C204F75747075742872656164290901
:1003D0003C2D2D3E09000A4C6F6769632054616211
:1003E0006C6520000A0A54657374206661696C6547
:1003F00064000A0A5A65726F2063726F7373696EC4
:1004000067207465737420706173736564000A00FB
:100410000A477265656E20746F2030000A47726566
:10042000656E20746F2031000A000A505245535304
:100430002041204B455920616E6420454E54455261
:10044000000A477265656E204C696E6520746F20E6
:10045000545033206F722070696E203134206F72D7
:100460002061206C6567206F662052313720616EF5
:10047000642070726F6265205531342070696E207F
:100480003420616E642070726573732061206B6527
:10049000790A000A000A50524553532041204B4527
:1004A0005920616E6420454E544552000A546F2015
:1004B00070726F636565642070726573732061206C
:1004C0006B6579000A5A65726F2043726F737369A6
:1004D0006E6720746573742C204A342D3135206E7C
:1004E0006F2034335620636F6E6E656374656421CC
:1004F0002121000A4E756D626572206F662065725B
:10050000726F72733A000A54657374204661696CA5
:100510006564000A546573742050617373656400E8
:100520003D002020206F75747075745F766563746C
:100530006F72203D20003D000A20696E7075745F67
:10054000766563746F72203D20004572726F720091
:100550000A3D4A3420746573743B2061747461638E
:100560006820666C61746361626C65203B41303D5C
:100570003E50696E31000A4E756D626572206F667D
:10058000206572726F72733A000A54657374204664
:1005900061696C6564000A546573742050617373FB
:1005A0006564000A70696E32303D000A70696E320F
:1005B000303D000A70696E32302073657175656E6A
:1005C00063652074657374000A666C6174636162AC
:1005D0006C652070696E31302073657175656E636E
:1005E000652C20696620434132207472616E736904
:1005F00074696F6E7320746F20303A000A666C6104
:10060000746361626C652070696E3130207365714E
:1006100075656E63652C20696620434132207472D3
:10062000616E736974696F6E7320746F20313A0064
:100630007469636B73202873686F756C64206265DE
:1006400020617070726F78203330207469636B732F
:10065000000A74696D696E67206F66206469737043
:100660006C617920626C616E6B696E673A000A702A
:10067000696E31303D646973706C617920626C61C0
:100680006E6B696E6720697320636F727265637445
:10069000000A003B5531305F435242325F62697459
:1006A0003D20003B5531305F435241325F626974F7
:1006B0003D20003B5531315F435242325F626974E5
:1006C0003D20003B5531315F435241325F626974D6
:1006D0003D20003B5531305F506F72745F6279741A
:1006E000655F41203D20000A0A5531315F506F722D
:1006F000745F627974655F41203D20003D002020D9
:10070000206F75747075745F766563746F72203DC9
:1007100020003D00696E7075745F766563746F725A
:10072000203D20000A4572726F7221213A003D007F
:100730002020206F75747075745F766563746F72B6
:10074000203D20003D00696E7075745F76656374AE
:100750006F72203D20000A436F727265637421211D
:100760003A000A3D4A3120746573743B2061747409
:1007700061636820666C61746361626C65203B41F3
:10078000303D3E50696E31000A4175746F6D617481
:10079000656420436865636B204A31000A417574C3
:1007A0006F6D6174656420436865636B204A340033
:1007B0000A52656164696E6720616E616C6F6720C3
:1007C0006C696E65730A20746F20656E64207072A8
:1007D0006573732061206B6579000A205A65726F1A
:1007E0002063726F7373696E67000A20636F6E74A3
:1007F000726F6C6C696E6720746865206F757470B9
:100800007574206C696E6573000A000A5052455376
:10081000532041204B455920616E6420454E54457C
:1008200052000A417474616368742070726F62656B
:1008300020746F205531322050696E3320286F723A
:1008400020523233207570706572206C65672920E4
:10085000616E642070726573732061206B6579002E
:100860000A000A50524553532041204B45592061FC
:100870006E6420454E544552000A52656164696EAB
:1008800067205068692061667465722079656C6CB8
:100890006F7720737769746368656420746F20696B
:1008A0006E7075743D000A5A65726F2053656C65F1
:1008B00063746564000A3D3D3D3D3D3D3D3D3D3D2C
:1008C0003D3D3D3D3D3D3D3D3D3D3D3D3D3D3D3D58
:1008D0003D3D3D3D3D3D3D3D3D3D3D3D3D3D0A00B8
:1008E0000A3D3D3D3D3D3D3D3D3D5265636569767B
:1008F00065643D3D3D3D3D3D3D3D3D3D3D3D3D3DD9
:100900003D3D3D3D3D3D3D3D3D0A000A3D3D3D3DBA
:100910003D3D3D3D3D3D3D3D3D3D3D3D3D3D3D3D07
:100920003D3D3D3D3D3D3D3D3D3D3D3D0A000A20B7
:1009300039383D20436865636B204A312D3120747E
:10094000687275204A312D3135206175746F6D6183
:10095000746963616C6C79000A2039373D20436803
:1009600065636B204A34206175746F6D61746963CF
:10097000616C6C79000A2039363D20526561642033
:1009800032302070696E20666C61746361626C65E0
:10099000000A2039353D20436865636B205A657233
:1009A0006F2043726F7373696E672063697263753A
:1009B0006974000A2039343D20436F6E74726F6C85
:1009C000206F7574707574732079656C6C6F772CFB
:1009D00020677265656E2C20626C7565000A20398F
:1009E000333D205465737420446973706C617920C1
:1009F000696E7465727570742067656E6572617476
:100A00006F72000A2039323D2052656164205265C0
:100A1000736574000A2039313D20526561642050AD
:100A20006869000A2039303D205265616420707287
:100A30006F62652073657175656E6365000A2039A4
:100A40003D20205265616420506869207769746890
:100A50002059656C6C6F7720617320696E707574B6
:100A6000000A20383D2020566172696F7573203668
:100A7000383030206D656D20616E6420726F6D209E
:100A80007465737473000A20373D20204C6F6769CA
:100A90006320616E616C7973657220746F20636886
:100AA00065636B2073746172747570206166746520
:100AB00072207265736574000A20363D20204D65F2
:100AC0006D6F7279206C6F636174696F6E207465ED
:100AD0007374000A20353D20204461746120616EEA
:100AE000642061647265737320627573207465732A
:100AF00074206D656E75000A20343D20204C6F67B0
:100B000069632069632028436869702073656C6598
:100B1000637420657463292074657374206D656E39
:100B200075000A20333D20204A20636F6E6E656396
:100B3000746F722074657374206D656E75000A2081
:100B4000323D2020436865636B20494320736F6307
:100B50006B6574732070696E732074657374206D97
:100B6000656E75000A20313D2020436F6D706C6505
:100B700074652049432074657374206D656E75003B
:100B80000A3D3D3D3D3D3D3D3D3D3D3D3D3D3D3DC8
:100B90003D3D3D3D3D3D3D3D3D3D3D3D3D3D3D3D85
:100BA0003D0A576869636820546573743A0004000D
:100BB0001300120011001000140015001600170099
:100BC00000041A00000400020004000400020101F5
:100BD00001010001000103000004200021000004C5
:100BE000000400040004000430003100320033002F
:100BF00034003500360037000200200021002200BA
:100C000023002400000400043000310032003300CF
:100C100034003500360037000100070006000500EB
:100C200004000300020001000A0000042A003A0048
:100C30002300220021002000240025002600270098
:100C400020002100220023000000240025002600AF
:100C500027000A0A557365206C656420616E642064
:100C60006B6579206D6F64756C65206F7220707292
:100C7000657373203020616E6420656E7465722028
:100C8000746F20676F20746F2050432074657374F5
:100C9000206D656E750A000A0A5068695F32202867
:100CA000636C6F636B29207365656D7320746F20AF
:100CB000626520696E636F72726563742E0A546890
:100CC00065206C6F67696320616E616C7973657212
:100CD0002C204D656D6F727920616E6420506961C2
:100CE0002072656C61746564207465737420776923
:100CF0006C6C2068616E672C206966205068695FA3
:100D000032206973206E6F7420636F727265637432
:100D1000000A2054657374206661696C6564206EF6
:100D20006F20636F727265637420467265717565BA
:100D30006E637920617661696C61626C6520000A7E
:100D4000546573742070617373656420636F72728D
:100D5000656374204672657175656E63792061768E
:100D600061696C61626C652000487A0A636F727217
:100D70006563742076616C756520697320206170ED
:100D800070726F7820323030487A283136302D3208
:100D9000373020487A292E2034302D363520487AB5
:100DA000206973206120646566656374286F7065CF
:100DB0006E20776972652920000A46726571756533
:100DC0006E6379207265616420697320000A207364
:100DD000657175656E6365203A000A204469737019
:100DE0006C617920696E74657275702067656E65D7
:100DF0007261746F722074657374003D3D3D3D3DBA
:100E00003D3D2054455354204641494C4544203DE6
:100E10003D3D3D3D3D3D0A003D3D3D3D3D3D3D208F
:100E20005445535420535543434553533D3D3D3D55
:100E30003D3D3D0A00204572726F727320666F75EA
:100E40006E643A00204572726F72733A000A4D6503
:100E50006D6F727920746573742041647265737369
:100E60003A000A43757272656E7420526573657438
:100E70003D000A5265736574206973204465666598
:100E800063742C20636865636B2056616C69642011
:100E9000706F776572206465746563746F722E007D
:100EA0000A526573657420697320636F727265639B
:100EB000742E000A54657374696E672072657365D9
:100EC0007400202050726F62652073657175656EC5
:100ED00063653A002050726F6265207365717565B5
:100EE0006E63653A000A5068695F322073657175F8
:100EF000656E63653A000A5068695F322069732045
:100F000070726F6261626C792064656665637400FB
:100F10000A5068695F3220636F7272656374000AF9
:100F200050696120696E7075742C206E6F20636F3C
:100F3000646520000A4352425F3200435242000A75
:100F40004352415F32004352410042697400504FA6
:100F50005254420042697400504F5254410050694B
:100F6000615F553130005069615F553131003D009E
:100F70003D24000A7069615F636F6465000A000ABE
:100F80003D3D3D3D3D3D3D3D3D3D3D3D3D3D3D3D91
:100F90003D41637469766174696E672020203D3D30
:100FA0003D3D3D3D3D3D3D3D3D3D3D3D3D3D3D3D71
:100FB0003D3D3D3D3D3D3D3D3D3D3D3D3D3D3D3D61
:100FC0003D3D3D3D3D3D3D3D3D3D3D3D3D3D3D3D51
:100FD0003D3D3D3D3D3D3D3D3D3D3D3D3D3D00209B
:100FE00070696E20313020004A3120657865707458
:100FF000696F6E002D000A54455354203A4A002070
:101000000A3D3D3D3D3D3D3D5445535420464149FB
:101010004C4544203D3D3D3D3D3D3D0A00200A3DBF
:101020003D3D3D3D3D3D544553542053554343457F
:1010300053533D3D3D3D3D3D3D0A0043423200435B
:101040004132004269742000504F52544220004205
:10105000697400504F52544100506961205531303D
:1010600020005069612055313120002A0020000AFB
:1010700070696E3A000A000A436F6E6E6563746FA2
:1010800072203A4A000A3D3D3D3D3D3D3D3D3D3DDE
:101090003D3D3D3D3D3D3D41637469766174696E02
:1010A000672020203D3D3D3D3D3D3D3D3D3D3D3D9D
:1010B0003D3D3D3D3D3D3D3D3D3D3D3D3D3D3D3D60
:1010C0003D3D3D3D3D3D3D3D3D3D3D3D3D3D3D3D50
:1010D0003D3D3D3D3D3D3D3D3D3D3D3D3D3D3D3D40
:1010E0003D3D3D3D000A3D3D3D3D3D3D3D3D3D3DA0
:1010F0003D3D3D3D3D3D3D426C696E6B203378206A
:1011000020203D3D3D3D3D3D3D3D3D3D3D3D3D3D49
:101110003D3D3D3D3D3D3D3D3D3D3D3D3D3D3D3DFF
:101120003D3D3D3D3D3D3D3D3D3D3D3D3D3D3D3DEF
:101130003D3D3D3D3D3D3D3D3D3D3D3D3D3D3D3DDF
:101140003D3D000A3D3D3D3D3D3D3D3D3D3D3D3D3F
:101150003D3D3D3D3D3D3D3D3D3D3D3D3D3D3D3DBF
:101160003D3D3D3D3D3D3D3D3D3D3D3D3D3D3D3DAF
:101170003D3D3D3D3D3D3D3D3D3D3D3D3D3D3D3D9F
:101180003D3D3D3D3D3D3D3D3D3D3D3D3D3D3D3D8F
:101190003D3D3D3D3D0A000A3D20202020202020ED
:1011A000202020202020202020202020202020431C
:1011B0006132206F6E2F6F66662020202020202055
:1011C000202020202020202020202020202020201F
:1011D000202020202020202020202020202020200F
:1011E00020202020202020203D000A3D20202020FB
:1011F00020202020202020202020202020202020EF
:1012000020204341312055313120746573742020F2
:1012100020202020202020202020202020202020CE
:1012200020202020202020202020202020202020BE
:1012300020202020202020202020203D000A3D3D8D
:101240003D3D3D3D3D3D3D3D3D3D3D3D3D3D3D3DCE
:101250003D3D3D3D3D3D3D3D3D3D3D3D3D3D3D3DBE
:101260003D3D3D3D3D3D3D3D3D3D3D3D3D3D3D3DAE
:101270003D3D3D3D3D3D3D3D3D3D3D3D3D3D3D3D9E
:101280003D3D3D3D3D3D3D3D3D3D3D3D3D3D3D00CB
:101290000A3D3D3D3D3D3D3D3D3D3D3D3D3D3D3DB1
:1012A0003D3D3D3D3D3D3D3D3D3D3D3D3D3D3D3D6E
:1012B0003D3D3D3D3D3D3D3D3D3D3D3D3D3D3D3D5E
:1012C0003D3D3D3D3D3D3D3D3D3D3D3D3D3D3D3D4E
:1012D0003D3D3D3D3D3D3D3D3D3D3D3D3D3D3D3D3E
:1012E0003D3D0A000A3D20202020202020202020F3
:1012F0002020202020202020202020204361322078
:101300006F6E2F6F66662020202020202020202056
:1013100020202020202020202020202020202020CD
:1013200020202020202020202020202020202020BD
:1013300020202020203D000A3D20202020202020A9
:101340002020202020202020202020202020204A73
:10135000332070696E20313B2043413120553130BC
:10136000207465737420202020202020202020203D
:10137000202020202020202020202020202020206D
:1013800020202020202020203D000A3D3D3D3D3DE5
:101390003D3D3D3D3D3D3D3D3D3D3D3D3D3D3D3D7D
:1013A0003D3D3D3D3D3D3D3D3D3D3D3D3D3D3D3D6D
:1013B0003D3D3D3D3D3D3D3D3D3D3D3D3D3D3D3D5D
:1013C0003D3D3D3D3D3D3D3D3D3D3D3D3D3D3D3D4D
:1013D0003D3D3D3D3D3D3D3D3D3D3D3D000A3D3DAD
:1013E0003D3D3D3D3D3D3D3D3D3D3D3D3D3D3D3D2D
:1013F0003D3D3D3D3D3D3D3D3D3D3D3D3D3D3D3D1D
:101400003D3D3D3D3D3D3D3D3D3D3D3D3D3D3D3D0C
:101410003D3D3D3D3D3D3D3D3D3D3D3D3D3D3D3DFC
:101420003D3D3D3D3D3D3D3D3D3D3D3D3D3D3D0A1F
:10143000000A3D20202020202020202020202020C5
:10144000202020202020202020202020202020209C
:10145000202020202020202020202020202020208C
:10146000202020202020202020202020202020207C
:10147000202020202020202020202020202020206C
:1014800020203D000A3D2020202020202020202058
:10149000202020202020202020202020202020204C
:1014A0002020677265656E206C656420626C696ED1
:1014B0006B207465737420202020202020202020A1
:1014C000202020202020202020202020202020201C
:1014D00020202020203D000A3D3D3D3D3D3D3D3D3D
:1014E0003D3D3D3D3D3D3D3D3D3D3D3D3D3D3D3D2C
:1014F0003D3D3D3D3D3D3D3D3D3D3D3D3D3D3D3D1C
:101500003D3D3D3D3D3D3D3D3D3D3D3D3D3D3D3D0B
:101510003D3D3D3D3D3D3D3D3D3D3D3D3D3D3D3DFB
:101520003D3D3D3D3D3D3D3D3D000A3D3D3D3D3D5B
:101530003D3D3D3D3D3D3D3D3D3D3D3D3D3D3D3DDB
:101540003D3D3D3D3D3D3D3D3D3D3D3D3D3D3D3DCB
:101550003D3D3D3D3D3D3D3D3D3D3D3D3D3D3D3DBB
:101560003D3D3D3D3D3D3D3D3D3D3D3D3D3D3D3DAB
:101570003D3D3D3D3D3D3D3D3D3D3D3D0A000A3D3E
:10158000202020202020202020202020202020205B
:10159000202020202020202020202020202020204B
:1015A000202020202020202020202020202020203B
:1015B000202020202020202020202020202020202B
:1015C0002020202020202020202020202020203DFE
:1015D000000A3D2020202020202020202020202024
:1015E00020202020202020202020202020202020FB
:1015F00036383231204A342020202020202020205C
:1016000020202020202020202020202020202020DA
:1016100020202020202020202020202020202020CA
:1016200020203D000A3D3D3D3D3D3D3D3D3D3D3D94
:101630003D3D3D3D3D3D3D3D3D3D3D3D3D3D3D3DDA
:101640003D3D3D3D3D3D3D3D3D3D3D3D3D3D3D3DCA
:101650003D3D3D3D3D3D3D3D3D3D3D3D3D3D3D3DBA
:101660003D3D3D3D3D3D3D3D3D3D3D3D3D3D3D3DAA
:101670003D3D3D3D3D3D000A4A312D3238000A4A8C
:10168000312D3237000A4A312D3236000A4A312DC7
:101690003235000A4A312D3234000A4A312D3234B3
:1016A000000A4A312D3233000A4A312D3232000A03
:1016B0004A312D3231000A4A312D3230000A4A3186
:1016C0002D3139000A4A312D3138000A4A312D3185
:1016D00037000A4A312D3136000A4A312D313500A2
:1016E0000A4A312D3134000A4A312D3133000A4A79
:1016F000312D3132000A4A312D3131000A4A312D63
:101700003130000A4A312D393D4B4559204E4100B8
:101710000A4A312D38000A4A312D37000A4A312D44
:1017200036000A4A312D35000A4A312D34000A4A62
:10173000312D33000A4A312D32000A4A312D310051
:101740000A506F727420413B2043423220434132A1
:101750002068696768206F662055313020616E64AB
:101760002055313120000A506F727420413B2043D4
:10177000423220434132206C6F77206F6620553112
:101780003020616E642055313120000A506F727430
:1017900020413B2043423220434132204869676860
:1017A000206F662055313020616E64205531312024
:1017B000000A3D3D3D3D3D3D3D3D3D3D3D3D3D3DC9
:1017C0003D3D3D3D3D3D3D3D3D3D3D3D3D3D3D3D49
:1017D0003D3D3D3D3D3D3D3D3D3D3D3D3D3D3D3D39
:1017E0003D3D3D3D3D3D3D3D3D3D3D3D3D3D3D3D29
:1017F0003D3D3D3D3D3D3D3D3D3D3D3D3D3D3D3D19
:101800003D3D3D0A000A3D202020202020202020B0
:1018100020202020202020202020202020202020C8
:1018200020202020202020202020204A312020207D
:1018300020202020202020202020202020202020A8
:101840002020202020202020202020202020202098
:1018500020202020202020203D000A3D2020202084
:101860002020202020202020202020202020202078
:101870002020363832312074657374203078393046
:10188000202F2F5531312026205531302030783807
:101890003820202020202020202020202020202030
:1018A00020202020202020202020203D000A3D3D17
:1018B0003D3D3D3D3D3D3D3D3D3D3D3D3D3D3D3D58
:1018C0003D3D3D3D3D3D3D3D3D3D3D3D3D3D3D3D48
:1018D0003D3D3D3D3D3D3D3D3D3D3D3D3D3D3D3D38
:1018E0003D3D3D3D3D3D3D3D3D3D3D3D3D3D3D3D28
:1018F0003D3D3D3D3D3D3D3D3D3D3D3D3D3D3D0055
:101900000A3D3D3D3D3D3D3D3D3D3D3D546F67679D
:101910006C6520616C6C20706F7274733D3D3D3D51
:101920003D3D3D3D3D3D3D3D3D3D3D3D3D3D3D3DE7
:101930003D3D3D3D3D3D3D3D3D3D3D3D3D3D3D3DD7
:101940003D3D3D3D3D3D3D3D3D3D3D3D3D3D3D3DC7
:101950003D3D3D3D3D3D3D3D3D3D3D3D3D3D3D3DB7
:101960003D3D000A000A50524553532041204B454B
:101970005920616E6420454E544552000A3D3D3D5C
:101980003D3D3D3D3D3D3D3D3D3D3D3D3D3D3D3D87
:101990003D3D3D3D3D3D3D3D3D3D3D3D3D3D3D3D77
:1019A0003D3D3D3D3D3D3D3D3D3D3D3D3D3D3D3D67
:1019B0003D3D3D3D3D3D3D3D3D3D3D3D3D3D3D3D57
:1019C0003D3D3D3D3D3D3D3D3D3D3D3D3D3D0A00B7
:1019D0000A3D202020202020202020202020202000
:1019E00020202020202020204D616B6520737572FF
:1019F0006520616C6C20646970207377697463681A
:101A0000657320617265206F70656E202020202034
:101A100020202020202020202020202020202020C6
:101A2000203D000A3D2020202020202020202020B2
:101A30002020202020202020202020363832312055
:101A4000746573742030783930202F2F5531312050
:101A50002620553130203078383820202020202092
:101A60002020202020202020202020202020202076
:101A7000202020203D000A3D3D3D3D3D3D3D3D3D7A
:101A80003D3D3D3D3D3D3D3D3D3D3D3D3D3D3D3D86
:101A90003D3D3D3D3D3D3D3D3D3D3D3D3D3D3D3D76
:101AA0003D3D3D3D3D3D3D3D3D3D3D3D3D3D3D3D66
:101AB0003D3D3D3D3D3D3D3D3D3D3D3D3D3D3D3D56
:101AC0003D3D3D3D3D3D3D3D000A3D3D3D3D3D3DB6
:101AD0003D3D3D3D3D3D3D3D3D3D3D3D3D3D3D3D36
:101AE0003D3D3D3D3D3D3D3D3D3D3D3D3D3D3D3D26
:101AF0003D3D3D3D3D3D3D3D3D3D3D3D3D3D3D3D16
:101B00003D3D3D3D3D3D3D3D3D3D3D3D3D3D3D3D05
:101B10003D3D3D3D3D3D3D3D3D3D3D0A000A3D20B5
:101B200020202020202020202020202020202020B5
:101B3000202020202020202020202020204A342067
:101B40002020202020202020202020202020202095
:101B50002020202020202020202020202020202085
:101B600020202020202020202020202020203D0078
:101B70000A3D20202020202020202020202020205E
:101B80002020202020202020363832312074657318
:101B9000742030783930202F2F55313120202020EB
:101BA0002020202020202020202020202020202035
:101BB0002020202020202020202020202020202025
:101BC000203D000A3D3D3D3D3D3D3D3D3D3D3D3DD2
:101BD0003D3D3D3D3D3D3D3D3D3D3D3D3D3D3D3D35
:101BE0003D3D3D3D3D3D3D3D3D3D3D3D3D3D3D3D25
:101BF0003D3D3D3D3D3D3D3D3D3D3D3D3D3D3D3D15
:101C00003D3D3D3D3D3D3D3D3D3D3D3D3D3D3D3D04
:101C10003D3D3D3D3D00F7FBFDFEEFDFBF7FFF0A91
:101C20003D3D3D3D3D3D3D3D3D3D3D526F6C6C205C
:101C30006F6E65206269742077686F6C6520706FC5
:101C400072742038783D3D3D3D3D3D3D3D3D3D3D3F
:101C50003D3D3D3D3D3D3D3D3D3D3D3D3D3D3D3DB4
:101C60003D3D3D3D3D3D3D3D3D3D3D3D3D3D3D3DA4
:101C70003D3D3D3D3D3D3D3D3D3D3D3D3D3D3D3D94
:101C8000000A3D3D3D3D3D3D3D3D3D3D3D546F6781
:101C9000676C6520616C6C20706F727473203130DA
:101CA0002078203D3D3D3D3D3D3D3D3D3D3D3D3D63
:101CB0003D3D3D3D3D3D3D3D3D3D3D3D3D3D3D3D54
:101CC0003D3D3D3D3D3D3D3D3D3D3D3D3D3D3D3D44
:101CD0003D3D3D3D3D3D3D3D3D3D3D3D3D3D3D3D34
:101CE0003D3D3D000A3D3D3D3D3D3D3D3D3D3D3D94
:101CF0004D505520426C696E6B203378203D3D3D40
:101D00003D3D3D3D3D3D3D3D3D3D3D3D3D3D3D3D03
:101D10003D3D3D3D3D3D3D3D3D3D3D3D3D3D3D3DF3
:101D20003D3D3D3D3D3D3D3D3D3D3D3D3D3D3D3DE3
:101D30003D3D3D3D3D3D3D3D3D3D3D3D3D3D3D3DD3
:101D40003D3D3D000A3D3D3D3D3D3D3D3D3D3D3D33
:101D50003D3D3D3D3D3D3D3D3D3D3D3D3D3D3D3DB3
:101D60003D3D3D3D3D3D3D3D3D3D3D3D3D3D3D3DA3
:101D70003D3D3D3D3D3D3D3D3D3D3D3D3D3D3D3D93
:101D80003D3D3D3D3D3D3D3D3D3D3D3D3D3D3D3D83
:101D90003D3D3D3D3D3D0A000A3D202020202020C4
:101DA0002020202020202020202020202020202033
:101DB0002020202020202020202020202020202023
:101DC0002020202020202020202020202020202013
:101DD0002020202020202020202020202020202003
:101DE0002020202020202020203D000A3D202020EF
:101DF00020202020202020202020202020202020E3
:101E0000202020202020202020203638323120554C
:101E1000313120506F7274207465737420206174A6
:101E20002030783930202020202020202020202021
:101E30002020202020202020202020203D000A3D9E
:101E40003D3D3D3D3D3D3D3D3D3D3D3D3D3D3D3DC2
:101E50003D3D3D3D3D3D3D3D3D3D3D3D3D3D3D3DB2
:101E60003D3D3D3D3D3D3D3D3D3D3D3D3D3D3D3DA2
:101E70003D3D3D3D3D3D3D3D3D3D3D3D3D3D3D3D92
:101E80003D3D3D3D3D3D3D3D3D3D3D3D3D3D3D3D82
:101E9000000A3D3D3D3D3D3D3D3D3D3D3D3D3D3DE2
:101EA0003D3D3D3D3D3D3D3D3D3D3D456E74657295
:101EB000696E67204D656D6F727920546573743D4E
:101EC0003D3D3D3D3D3D3D3D74616B65732020339F
:101ED000206D696E757465733D3D3D3D3D3D3D3DF5
:101EE0003D3D3D3D0A000A3D3D3D3D3D3D3D3D3DC5
:101EF0003D3D3D3D3D3D3D3D3D3D3D3D3D3D3D3D12
:101F00003D3D3D3D3D3D3D3D3D3D3D3D3D3D3D3D01
:101F10003D3D3D3D3D3D3D3D3D3D3D3D3D3D3D3DF1
:101F20003D3D3D3D3D3D3D3D3D3D3D3D3D3D3D3DE1
:101F30003D3D3D3D3D3D3D3D000A3D2020202020D2
:101F40002020202020202020202020202020202091
:101F50002020202020202020202020202020202081
:101F60002020202020202020202020202020202071
:101F70002020202020202020202020202020202061
:101F8000202020202020202020203D000A3D20204D
:101F90002020202020202020202020202020202041
:101FA00020202020202020202020203638313020E2
:101FB00074657374202020202020202020202020E1
:101FC0002020202020202020202020202020202011
:101FD000202020202020202020202020203D000A1A
:101FE0003D3D3D3D3D3D3D3D3D3D3D3D3D3D3D3D21
:101FF0003D3D3D3D3D3D3D3D3D3D3D3D3D3D3D3D11
:102000003D3D3D3D3D3D3D3D3D3D3D3D3D3D3D3D00
:102010003D3D3D3D3D3D3D3D3D3D3D3D3D3D3D3DF0
:102020003D3D3D3D3D3D3D3D3D3D3D3D3D3D3D3DE0
:102030003D000A3D3D3D3D3D3D3D3D3D3D3D3D3D40
:102040003D3D3D3D3D3D3D3D3D3D3D3D456E746528
:1020500072696E67204D656D6F7279205465737477
:102060003D3D3D3D3D2874616B65732031302073EB
:10207000656373293D3D3D3D3D3D3D3D3D3D3D3D20
:102080003D3D3D3D0A000A3D3D3D3D3D3D3D3D3D23
:102090003D3D3D3D3D3D3D3D3D3D3D3D3D3D3D3D70
:1020A0003D3D3D3D3D3D3D3D3D3D3D3D3D3D3D3D60
:1020B0003D3D3D3D3D3D3D3D3D3D3D3D3D3D3D3D50
:1020C0003D3D3D3D3D3D3D3D3D3D3D3D3D3D3D3D40
:1020D0003D3D3D3D3D3D3D3D000A3D202020202031
:1020E00020202020202020202020202020202020F0
:1020F00020202020202020202020202020202020E0
:1021000020202020202020202020202020202020CF
:1021100020202020202020202020202020202020BF
:10212000202020202020202020203D000A3D2020AB
:10213000202020202020202020202020202020209F
:102140002020202020202020202020353130312048
:10215000746573742020202020202020202020203F
:10216000202020202020202020202020202020206F
:10217000202020202020202020202020203D000A78
:102180003D3D3D3D3D3D3D3D3D3D3D3D3D3D3D3D7F
:102190003D3D3D3D3D3D3D3D3D3D3D3D3D3D3D3D6F
:1021A0003D3D3D3D3D3D3D3D3D3D3D3D3D3D3D3D5F
:1021B0003D3D3D3D3D3D3D3D3D3D3D3D3D3D3D3D4F
:1021C0003D3D3D3D3D3D3D3D3D3D3D3D3D3D3D3D3F
:1021D0003D000A3D3D3D3D3D3D3D3D3D3D3D3D3D9F
:1021E0003D3D3D3D3D3D3D3D3D3D3D3D3D3D3D3D1F
:1021F0003D3D3D0A000A203139343D20526561647D
:10220000205531312043413120627920726561646B
:10221000696E6720435241000A203139333D205214
:10222000656164205531302043413120627920724C
:10223000656164696E6720435241000A203139327A
:102240003D20626C696E6B20677265656E206C65FF
:1022500064000A203138353D204A34207465737497
:10226000000A203138343D204A31207465737400EF
:102270000A203138333D2055313126553130203652
:102280003832312070696120506F727420412061B2
:102290006E6420506F7274204220616C6C206F75E8
:1022A00074707574206F6E206F6666207465737429
:1022B000000A203138313D204A34206F6E2F6F667E
:1022C000662F726F6C6C20616E64206C6564206296
:1022D0006C696E6B2074657374000A2031343D2084
:1022E00055313120363832312070696120506F729B
:1022F00074204120616E6420506F727420422074FB
:10230000657374000A2031333D204E6F207465736D
:102310007420000A2031323D203638313020746577
:102320007374000A2031313D20353130312074651D
:102330007374000A3D3D3D3D3D3D3D3D3D3D3D3DD0
:102340003D3D3D3D3D3D3D3D3D3D3D3D3D3D3D3DBD
:102350003D3D3D3D0A5768696368206963205465C7
:1023600073743A002E002000200020000A204164EF
:10237000726573735F6865783A2024000A20707272
:102380006573732061206B657920746F20656E64BE
:10239000206D6170000A204D656D6F7279206C6F41
:1023A000636174696F6E3A24000A696E70757420F7
:1023B0006164726573733A000A6D656D6F7279209E
:1023C0006D61703A000A000A505245535320412073
:1023D0004B455920616E6420454E544552000A0A0F
:1023E00072656164792C20796F752063616E20615C
:1023F000637469766174652072657365740A207010
:10240000726573732061206B6579200A7468656E4C
:102410002070726F6772616D2073746172747300E3
:102420000A506C6163696E6720636F646520696E32
:10243000206D656D6F72793A000A3D3D3D3D3D3D31
:102440003D3D3D50726F636573736F722068616CC0
:10245000746564203D3D3D3D002E002E000A52650E
:1024600073756C7420506F7274202831372D31349D
:10247000292E4B2E463D000086227E6DD246202915
:102480000B2170104080523F065B4F666D7D077FC9
:102490006F090D614843D35F777C395E79713D7672
:1024A000301E753815373F736B336D783E3E2A7694
:1024B0006E5B39640F2308025F7C585E7B716F741A
:1024C000100C753014545C7367506D781C1C1476B6
:1024D0006E5B463070010054657374206F6B3A2058
:1024E0000054657374206F6B3A2000546573742038
:1024F0006F6B3A200054657374206F6B3A20005460
:10250000657374206F6B3A200054657374206F6B91
:102510003A200054657374206F6B3A200054657341
:1025200074206F6B3A200054657374206F6B3A20EF
:102530000054657374206F6B3A20005465737420E7
:102540006F6B3A200054657374206F6B3A2000540F
:10255000657374206F6B3A200054657374206F6B41
:102560003A200054657374206F6B3A2000546573F1
:1025700074206F6B3A200054657374206F6B3A209F
:102580000054657374206F6B3A2000546573742097
:102590006F6B3A200054657374206F6B3A200054BF
:1025A000657374206F6B3A200054657374206F6BF1
:1025B0003A200054657374206F6B3A2000546573A1
:1025C00074206F6B3A200054657374206F6B3A204F
:1025D0000054657374206F6B3A200043616E6E6F18
:1025E00074206265207465737465642E2050726F68
:1025F000626520726573756C742000203A2000209B
:1026000050696E20000A54455354203A000A3A4556
:102610006E7465722076616C756520666F722064D9
:102620006174616C696E65730A20000A3A456E74C4
:1026300065722076616C756520666F7220616472C8
:102640006573736C696E65730A200078000A204414
:1026500061746120726561643A0078000A20353344
:102660003D20416472657373206C696E65206F75DF
:10267000747075742074657374000A2035323D20BF
:10268000446174616C696E652072656164000A2042
:1026900035313D20446174616C696E65206F7574DD
:1026A0007075742074657374000A3D3D3D3D3D3D79
:1026B0003D3D3D52656D6F7665204D50552F616EE5
:1026C000642050494120616E64204D656D6F7279C0
:1026D00020494327733D3D3D3D3D3D3D3D0A576803
:1026E00069636820546573743A000A3D3D3D3D3D81
:1026F0003D3D3D3D4275732072656C61746564209B
:1027000074657374733D3D3D3D3D3D3D3D3D3D3DF7
:102710003D3D3D3D3D3D3D3D3D3D3D3D0A576869AB
:10272000636820546573743A003000300030003024
:10273000000A4C6F67696320616E616C7973657222
:10274000206C656420616E64206B6579000A4755D2
:10275000492074696D65204C6F67696320616E6103
:102760006C7973657220737461747573206C696E13
:102770006573206F6E6C79000A4755492074696D46
:1027800065204C6F67696320616E616C7973657257
:1027900020737461747573206C696E6573206F6E3D
:1027A0006C79000A4755492074696D65204C6F6744
:1027B000696320616E616C797365722073746174F2
:1027C0007573206C696E6573206F6E6C79000A47B3
:1027D00055492074696D65204C6F67696320616E8F
:1027E000616C7973657220737461747573206C69A0
:1027F0006E6573206F6E6C79000A000A5052455363
:10280000532041204B455920616E6420454E54456C
:1028100052000A50726573732061206B65792074D1
:102820006F20636F6E74696E75000A74696D652040
:102830004C6F67696320616E616C797365722061AA
:102840006472657373206C696E6573206F6E6C794A
:10285000000A000A50524553532041204B4559204D
:10286000616E6420454E544552000A507265737380
:102870002061206B657920746F20636F6E74696EC0
:1028800075000A74696D65204C6F67696320616E1D
:10289000616C7973657220737461747573206C69EF
:1028A0006E6573206F6E6C79000A000A50524553B2
:1028B000532041204B455920616E6420454E5445BC
:1028C00052000A50726573732061206B6579207421
:1028D0006F20636F6E74696E75000A74696D652090
:1028E0004C6F67696320616E616C797365722064F7
:1028F000617461206C696E6573206F6E6C79000A7B
:10290000000A50524553532041204B455920616ED7
:102910006420454E544552000A507265737320611D
:10292000206B657920746F20636F6E74696E75001B
:102930000A74696D65204C6F67696320616E616C14
:10294000797365722061726D2061647265737300C2
:102950000A000A50524553532041204B45592061EB
:102960006E6420454E544552000A507265737320C0
:1029700061206B657920746F2073746172742061BB
:102980006E616C79736572000A50726573732061B1
:10299000206B657920746F20656E6420616E616CB8
:1029A000797365720A000A466972737420707265E1
:1029B00073732061206B657920616E642074686593
:1029C0006E2072656C656173652072657365740055
:1029D0000A4C6F67696320616E616C797365722060
:1029E0002874696D652920746F20636865636B20A6
:1029F000737461727475702061667465722072659B
:102A00007365740A53616D706C65732066697273C7
:102A10007420446174610A506869205468656E20AE
:102A2000416472657373206279746573000A000AE9
:102A300050524553532041204B455920616E64202C
:102A4000454E544552000A50726573732061206BE5
:102A5000657920746F20737461727420616E616C8B
:102A600079736572000A50726573732061206B651B
:102A70007920746F20656E6420616E616C79736576
:102A8000720A000A4669727374207072657373204B
:102A900061206B657920616E64207468656E2072B8
:102AA000656C65617365207265736574000A4C6FAF
:102AB00067696320616E616C797365722028737435
:102AC000617465292061742061726D206164726592
:102AD00073730A000A000A50524553532041204B99
:102AE000455920616E6420454E544552000A50728B
:102AF0006573732061206B657920746F2073746136
:102B0000727420616E616C79736572000A5072652F
:102B100073732061206B657920746F20656E64206B
:102B2000616E616C797365720A000A46697273742A
:102B30002070726573732061206B657920616E640B
:102B4000207468656E2072656C65617365207265BE
:102B5000736574000A4C6F67696320616E616C79FC
:102B6000736572202873746174652920746F206303
:102B70006865636B2073746172747570206166742C
:102B800065722072657365740A000A3D3D3D3D3DE6
:102B90003D3D3D3D3D3D3D3D3D3D3D3D3D3D3D3D65
:102BA0003D3D3D3D3D3D3D3D3D3D3D3D3D3D3D3D55
:102BB0003D3D3D0A000A3D3D3D3D3D3D3D3D3D52D3
:102BC000656365697665643D3D3D3D3D3D3D3D3D0B
:102BD0003D3D3D3D3D3D3D3D3D3D3D3D3D3D0A0095
:102BE0000A203738343D204C6F67696320616E617D
:102BF0006C79736572206C656420616E64206B650E
:102C000079000A203738333D2044756D7020666F97
:102C1000722047554920416C6C000A203738323DFC
:102C20002044756D7020666F7220475549204164BD
:102C300072657373000A203738313D2044756D701A
:102C400020666F72204755492044617461000A2054
:102C50003738303D2044756D7020666F72204755BF
:102C600049205374617473000A2037373D2074691A
:102C70006D6520204C6F67696320616E616C7973AC
:102C8000657220616472657373206C696E65732070
:102C90006F6E6C7920000A2037363D2074696D65AF
:102CA00020204C6F67696320616E616C7973657277
:102CB0002073746174206C696E6573206F6E6C791B
:102CC000000A2037353D2074696D6520204C6F6700
:102CD000696320616E616C797365722064617461EF
:102CE000206C696E6573206F6E6C79000A20373432
:102CF0003D2074696D6520204C6F67696320616EAB
:102D0000616C797365722061742061726D206164F9
:102D10007265737320616674657220726573657481
:102D2000000A2037333D2074696D6520204C6F67A1
:102D3000696320616E616C7973657220746F2063C2
:102D40006865636B2073746172747570206166745A
:102D50006572207265736574000A2037323D2073F6
:102D600074617465204C6F67696320616E616C7972
:102D70007365722061742061726D20616472657385
:102D800073206166746572207265736574000A2031
:102D900037313D207374617465204C6F676963201F
:102DA000616E616C7973657220746F20636865630E
:102DB0006B20737461727475702061667465722023
:102DC0007265736574000A3D3D3D3D3D3D3D3D4DA1
:102DD000656E75204C6F67696320616E616C7973F5
:102DE0006572203D3D3D3D3D3D3D3D3D3D3D3D3DD3
:102DF0003D3D3D3D3D3D0A005374617274206F6658
:102E00002050726F6772616D20000952657365749E
:102E100020766563746F72204C6F772042797465F9
:102E20000009526573657420766563746F7220487B
:102E30006967682042797465002020203A202000CC
:102E40005D202020202020002020203A20205B0030
:102E50002020203A202020000A20004461746120B4
:102E600020202020203A204F70636F6465206C651D
:102E70006E6774683A20204F70636F64653A204F24
:102E8000706572616E640A000A4164726573732032
:102E9000203A000A77616974696E670A000A205750
:102EA000696C6C2061726D2061742061647265735D
:102EB000733A24000A77616974696E6720666F72DD
:102EC00020526573657420746F206265636F6D6551
:102ED00020686967680A000A000A50524553532067
:102EE00041204B455920616E6420454E54455200A7
:102EF0000A2052656D6F7665206361626C6520748F
:102F00006F204D50552D4A352E0A2057696C6C2084
:102F100064616D616765204D50555F313720616E8A
:102F200064204D50555F333520626F6172647320A9
:102F3000696620636F6E6E65637465640A20507203
:102F40006573732061206B657920746F20636F6EE9
:102F500074696E75000A20496D706F7274616E74C9
:102F6000206F6E6C7920746F20636865636B204DF1
:102F7000505520746573746572206861726477615E
:102F80007265000A204A35204361626C65207465D1
:102F9000737420000A20696E73746572742050691E
:102FA000612773000A204A34207465737420000A74
:102FB00020696E7374657274205069612773000A0A
:102FC000204A33207465737420000A20696E73747C
:102FD000657274205069612773000A204A32207498
:102FE00065737420000A20696E73746572742050D2
:102FF00069612773000A204A3120746573742000C8
:103000000A20414C4C20506F727473206F66207000
:10301000696120636F6E66696775726564206173AC
:10302000206F75747075747320696E20746869738D
:1030300020746573742121000A3D3D3D3D3D3D3DB9
:103040003D3D3D3D3D3D3D3D3D3D3D3D3D3D3D3DB0
:103050003D3D3D3D3D3D3D3D2B2B3D0A000A20338E
:10306000353D204A35202020202020206361626CDD
:10307000652074657374000A2033343D204A34207F
:10308000202020202020636F6E6E6563746F722095
:1030900074657374000A2033333D204A33202020A6
:1030A00020202020636F6E6E6563746F72207465DC
:1030B00073742028506F7274423D6F75747075740C
:1030C00029000A2033323D204A32202020202020AF
:1030D00020636F6E6E6563746F7220746573742005
:1030E00028506F7274423D6F757470757429000AB0
:1030F0002033313D204A3120202020202020636FC2
:103100006E6E6563746F722074657374000A3D3D62
:103110003D3D3D3D3D3D4D656E7520494320706907
:103120006E2062792070696E2074657374203D3D55
:103130003D3D757365206C656420616E64206B6530
:10314000792020666F7220757020616E6420646F34
:10315000776E733D3D3D3D3D3D3D3D3D3D3D3D3DFE
:103160003D3D3D3D3D3D3D0A000A5375636365733A
:1031700020506C6163696E6720636F64652E204E1A
:10318000756D626572206F66204572726F72733D55
:10319000000A4572726F7220506C6163696E67201D
:1031A000636F64652E206E756D626572206F662098
:1031B0004572726F72733D000A506C6163696E678D
:1031C00020636F64653A000A50484932206E6F747C
:1031D00020636F72726563742C206F706572617406
:1031E000696F6E2063616E63656C6C6564000A488C
:1031F000616C74204D43363830302C506C616365FF
:103200002070726F6772616D20696E206D656D6FE1
:103210007279206D6336383130207370656369616F
:103220006C5F706F6B65000A50484932206E6F7496
:1032300020636F72726563742C206D656D6F727997
:10324000206D61702063616E63656C6C6564000A5B
:1032500048616C74696E672070726F636573736F19
:1032600072000A3D3D3D3D3D3D3D3D3D3D3D3D3DC9
:103270003D3D3D3D3D3D3D3D3D3D3D3D3D3D3D3D7E
:103280003D3D3D3D3D3D3D3D3D3D3D3D3D3D3D3D6E
:103290003D3D3D3D3D3D3D3D3D3D3D3D3D3D0A5777
:1032A0006869636820546573743A000A20202020FE
:1032B000202020202020202020202020202020200E
:1032C000202020203078353830302C20307835667A
:1032D00066662C2055362020323733322045505236
:1032E0004F4D2041532D323531382D333520283183
:1032F0003766662D31666666202D3137000A20203C
:1033000020202020202020202020202020202020BD
:103310002020202020203078353030302C2030788C
:10332000353766662C20553220203237333220451F
:1033300050524F4D2041532D323531382D333520E9
:1033400028313030302D31376666202D3137290055
:103350000A20202020202020202020202020202083
:103360002020202020202020203078303230302CA7
:10337000203078303266662C2055382020353130A8
:10338000312020434D4F532042617474657279207F
:103390004261636B65642044342D4437000A202069
:1033A000202020202020202020202020202020201D
:1033B0002020202020203078303039302C203078E8
:1033C000303039332C20553131204D4336383231AD
:1033D0002070696120285049413129205531313A06
:1033E00020536F6C656E6F6964732F536F756E64D5
:1033F00073202B20446973706C6179205374726F51
:10340000626520000A20202020202020202020206B
:103410002020202020202020202020202030783034
:103420003038382C203078303038622C205531300C
:10343000204D43363832312070696120285049418F
:103440003029205531303A205377697463686573A9
:10345000202B20446973706C6179202B204C616DA6
:103460007073000A202020202020202020202020EF
:1034700020202020202020202020202030783030C4
:1034800030302C203078303037662C2055372020D3
:103490004D4336383130203132382042797465203E
:1034A00052616D000A4D656D6F7279206D617020FB
:1034B00062616C6C79204D50552033353A000A3DDD
:1034C0003D3D3D3D3D3D3D3D3D3D3D3D3D3D3D3D2C
:1034D0003D3D3D3D3D3D3D3D3D3D3D3D3D3D3D3D1C
:1034E0003D3D3D3D3D3D3D3D3D3D3D3D3D3D3D3D0C
:1034F0003D3D3D3D3D3D3D3D3D3D0A000A44697336
:10350000706C6179206D656D6F7279206D617000EE
:103510000A506C6163652070726F6772616D20691B
:103520006E206D656D6F7279206D63363831302095
:1035300077697468207370656369616C20706F6B64
:1035400065000A506C6163652070726F6772616D0F
:1035500020696E206D656D6F7279206D633638312C
:1035600030000A3D3D3D3D3D3D3D3D3D3D3D3D3D08
:103570003D3D3D3D3D3D3D3D3D3D3D3D3D3D3D3D7B
:103580003D3D3D0A000A2038343D48616C74204DB1
:1035900043363830302C506C6163652070726F6731
:1035A00072616D20696E206D656D6F7279206D633B
:1035B00036383130207370656369616C5F706F6B92
:1035C00065000A2038333D446973706C6179206D61
:1035D000656D6F7279206D6170000A2038323D5040
:1035E0006C6163652070726F6772616D20696E2017
:1035F0006D656D6F7279206D633638313020737070
:10360000656369616C20706F6B6520616E64206416
:103610006973706C6179206D656D000A2038313DE9
:10362000506C6163652070726F6772616D20696EA6
:10363000206D656D6F7279206D6336383130000A08
:103640003D3D3D3D3D3D3D3D566172696F75732089
:1036500036383030206D656D6F7279207465737403
:10366000733D3D3D3D3D3D3D3D3D3D3D3D3D3D3D54
:103670003D3D3D3D3D0A000A000A5052455353204E
:1036800041204B455920616E6420454E54455200FF
:103690000A2052656D6F766520616C6C2043505531
:1036A0002F5049412F52414D20616E6420524F4DA1
:1036B0002043484950532C20646174617369676EDC
:1036C000616C7320617265206163746976652E2078
:1036D00050726573732061206B657920746F20636D
:1036E0006F6E74696E75000A205531392070696EED
:1036F0006F7574207465737420000A000A50524577
:1037000053532041204B455920616E6420454E544F
:103710004552000A2052656D6F766520616C6C2001
:103720004350552F5049412F52414D20616E642026
:10373000524F4D2043484950532C206461746173AB
:1037400069676E616C73206172652061637469766C
:10375000652E2050726573732061206B657920742B
:103760006F20636F6E74696E75000A2055313820C2
:1037700070696E6F7574207465737420000A000A96
:1037800050524553532041204B455920616E6420CF
:10379000454E544552000A2052656D6F7665206192
:1037A0006C6C204350552F5049412F52414D2061A0
:1037B0006E6420524F4D2043484950532C20646181
:1037C00074617369676E616C7320617265206163F7
:1037D000746976652E2050726573732061206B6565
:1037E0007920746F20636F6E74696E75000A2055BE
:1037F00031372070696E6F757420746573742000A2
:103800000A000A50524553532041204B455920612C
:103810006E6420454E544552000A2052656D6F7605
:103820006520616C6C204350552F5049412F524107
:103830004D20616E6420524F4D2043484950532C17
:1038400020646174617369676E616C732061726575
:10385000206163746976652E2050726573732061F0
:10386000206B657920746F20636F6E74696E7500CC
:103870000A205531362070696E6F75742074657337
:103880007420000A000A50524553532041204B45F2
:103890005920616E6420454E544552000A205265FD
:1038A0006D6F766520616C6C204350552F504941F7
:1038B0002F52414D20616E6420524F4D20434849A4
:1038C00050532C20646174617369676E616C73205E
:1038D000617265206163746976652E20507265732C
:1038E000732061206B657920746F20636F6E74693B
:1038F0006E75000A205531352070696E6F75742021
:103900007465737420000A000A50524553532041D5
:10391000204B455920616E6420454E544552000AA3
:103920002052656D6F766520616C6C204350552F79
:103930005049412F52414D20616E6420524F4D201D
:1039400043484950532C20646174617369676E6108
:103950006C7320617265206163746976652E2050F6
:10396000726573732061206B657920746F20636FBB
:103970006E74696E75000A20477265656E206C6909
:103980006E6520746F2054502033000A2055313466
:103990002070696E6F7574207465737420000A005E
:1039A0000A50524553532041204B455920616E64C3
:1039B00020454E544552000A2052656D6F766520B1
:1039C000616C6C204350552F5049412F52414D207E
:1039D000616E6420524F4D2043484950532C20645F
:1039E0006174617369676E616C73206172652061D7
:1039F00063746976652E2050726573732061206B45
:103A0000657920746F20636F6E74696E75000A208B
:103A100055322070696E6F75742074657374200060
:103A20000A000A50524553532041204B455920610A
:103A30006E6420454E544552000A2052656D6F76E3
:103A40006520616C6C204350552F5049412F5241E5
:103A50004D20616E6420524F4D2043484950532CF5
:103A600020646174617369676E616C732061726553
:103A7000206163746976652E2050726573732061CE
:103A8000206B657920746F20636F6E74696E7500AA
:103A90000A2055362070696E6F75742074657374D2
:103AA00020000A000A50524553532041204B4559EB
:103AB00020616E6420454E544552000A2052656DC7
:103AC0006F766520616C6C204350552F5049412F13
:103AD00052414D20616E6420524F4D204348495061
:103AE000532C20646174617369676E616C7320612B
:103AF0007265206163746976652E205072657373F8
:103B00002061206B657920746F20636F6E74696E1D
:103B100075000A2055382070696E6F7574207465C1
:103B2000737420000A000A50524553532041204B21
:103B3000455920616E6420454E544552000A20527A
:103B4000656D6F766520616C6C204350552F504930
:103B5000412F52414D20616E6420524F4D20434809
:103B60004950532C20646174617369676E616C7392
:103B700020617265206163746976652E20507265DC
:103B800073732061206B657920746F20636F6E748E
:103B9000696E75000A205531302070696E6F75743A
:103BA000207465737420000A000A50524553532054
:103BB00041204B455920616E6420454E54455200CA
:103BC0000A2052656D6F766520616C6C20435055FC
:103BD0002F5049412F52414D20616E6420524F4D6C
:103BE0002043484950532C20646174617369676EA7
:103BF000616C7320617265206163746976652E2043
:103C000050726573732061206B657920746F206337
:103C10006F6E74696E75000A2055372070696E6F7B
:103C20007574207465737420000A000A505245535D
:103C3000532041204B455920616E6420454E544528
:103C400052000A2052656D6F766520616C6C2043CE
:103C500050552F5049412F52414D20616E642052E2
:103C60004F4D2043484950532C206461746173695F
:103C7000676E616C7320617265206163746976653B
:103C80002E2050726573732061206B657920746FEC
:103C900020636F6E74696E75000A20553131207093
:103CA000696E6F7574207465737420000A000A5081
:103CB000524553532041204B455920616E642045A5
:103CC0004E544552000A2052656D6F766520616C36
:103CD0006C204350552F5049412F52414D20616E69
:103CE0006420524F4D2043484950532C2064617446
:103CF000617369676E616C732061726520616374C2
:103D00006976652E2050726573732061206B65792A
:103D100020746F20636F6E74696E75000A205539C8
:103D20002070696E6F7574207465737420000A3D8D
:103D30003D3D3D3D3D3D3D3D3D3D3D3D3D3D3D3DB3
:103D40003D3D3D3D3D3D3D3D3D3D3D3D3D3D3D0AD6
:103D5000000A203239353D205531392020202020DD
:103D600020204344343031312070696E20746573F3
:103D700074000A203239343D20553138202020206B
:103D80002020204344343034392070696E2074651B
:103D90007374000A203239333D20553137202020FA
:103DA0002020202020373430304E2070696E20745F
:103DB000657374000A203239323D20553136202097
:103DC00020202020202020393630322070696E20BB
:103DD00074657374000A203239313D205531352025
:103DE0004D43333435394C3D373433372070696EA9
:103DF0002074657374000A203239303D2055313407
:103E00002020202020202043443430343920706981
:103E10006E2074657374000A2032373D20553220BD
:103E20002020202020202020204550524F4D20705F
:103E3000696E2074657374000A2032363D20553651
:103E4000202020202020202020204550524F4D208F
:103E500070696E2074657374000A2032353D2055F8
:103E6000382020636D6F732072616D2035313031E1
:103E70002070696E2074657374000A2032343D200E
:103E800055313020202020202050696120363832E2
:103E9000312070696E2074657374000A2032333DDE
:103EA0002055372020202020202072616D203638B8
:103EB00031302070696E2074657374000A203232CC
:103EC0003D205531312020202020205069612036AE
:103ED0003832312070696E2074657374000A2032A4
:103EE000313D2055392020202020202043505520CE
:103EF000363830302070696E2074657374000A3D66
:103F00003D3D3D3D3D3D3D4D656E75204943207035
:103F1000696E2062792070696E2074657374203D2B
:103F20003D3D3D757365206C656420616E64206B5A
:103F300065792020666F7220757020616E64206440
:103F40006F776E733D3D3D3D3D3D3D3D3D3D3D3DCE
:103F50003D3D3D3D3D3D3D3D0A00200A3D3D3D3D51
:103F60003D3D3D54455354204641494C4544203D38
:103F70003D3D3D3D3D3D0A00200A3D3D3D3D3D3D31
:103F80003D5445535420535543434553533D3D3DC4
:103F90003D3D3D3D0A0020537475636B20746F20D6
:103FA000616C6C206F6E65732C205048495F322025
:103FB0006E6F74206174206F7574707574002020AA
:103FC0006572726F7220656E636F756E746572656F
:103FD00064002D526561642D3E003A002020693D49
:103FE000000A3D00200A3D3D3D3D3D3D3D544553C9
:103FF00054204641494C4544203D3D3D3D3D3D3DDD
:104000000A00200A3D3D3D3D3D3D3D544553542071
:10401000535543434553533D3D3D3D3D3D3D0A00D2
:1040200020206572726F7220656E636F756E7465A5
:1040300072656400726561643A000A20693D3A0065
:104040000A204578745F6D656D202A20564D412EFB
:104050002070726F626520746F3A2055313920707C
:10406000696E20313000200A3D3D3D3D3D3D3D54CF
:10407000455354204641494C4544203D3D3D3D3D3E
:104080003D3D0A00200A3D3D3D3D3D3D3D544553EB
:104090005420535543434553533D3D3D3D3D3D3DE8
:1040A0000A0020206572726F7220656E636F756EF4
:1040B0007465726564002D2D3E00726561643A007E
:1040C0000A20636F756E7465723D3A000A202128DC
:1040D00021413132202A20214139292E2070726F4E
:1040E000626520746F3A205531312070696E20323C
:1040F00033287069612920616E6420553130207049
:10410000696E20323320287069612900200A3D3D04
:104110003D3D3D3D3D54455354204641494C454469
:10412000203D3D3D3D3D3D3D0A00200A3D3D3D3D9C
:104130003D3D3D5445535420535543434553533D12
:104140003D3D3D3D3D3D0A0020206572726F72206D
:10415000656E636F756E7465726564002D2D3E002B
:10416000726561643A000A20636F756E7465723D12
:104170003A000A20522F6E572E2070726F6265200F
:10418000746F3A205531382070696E203700200A4C
:104190003D3D3D3D3D3D3D54455354204641494CF8
:1041A0004544203D3D3D3D3D3D3D0A00200A3D3D0D
:1041B0003D3D3D3D3D5445535420535543434553A8
:1041C000533D3D3D3D3D3D3D0A0020206572726FEF
:1041D0007220656E636F756E7465726564002D2D57
:1041E0003E00726561643A000A20636F756E746503
:1041F000723D3A000A20522F6E572E2070726F6265
:104200006520746F3A205531382070696E20360071
:10421000200A3D3D3D3D3D3D3D54455354204641E2
:10422000494C4544203D3D3D3D3D3D3D0A00200A71
:104230003D3D3D3D3D3D3D54455354205355434345
:104240004553533D3D3D3D3D3D3D0A002053747572
:10425000636B20746F20616C6C207A65726F732CB5
:10426000205048495F32206E6F74206174206F7552
:10427000747075740020206572726F7220656E63B1
:104280006F756E7465726564002D526561642D3EB4
:10429000003A002020693D000A3D000A20415F39B4
:1042A000202A206E415F3132202A20564D41202A9B
:1042B000204578745F6D656D20202A205068695F05
:1042C0003220746573742E2070726F626520746F73
:1042D0003A2055382070696E203139000A000A50A2
:1042E000524553532041204B455920616E6420456F
:1042F0004E544552000A2075362070696E203138C0
:1043000020564D41207820415F313220782050687E
:1043100069322C2070726573732061206B6579009F
:104320000A000A50524553532041204B4559206101
:104330006E6420454E544552000A2075362070693F
:104340006E20313820564D41207820415F31322097
:104350007820506869322C20707265737320612058
:104360006B6579000A000A50524553532041204B97
:10437000455920616E6420454E544552000A20354F
:10438000313031434520746573742055382070698D
:104390006E20313920616E64207072657373206104
:1043A000206B6579000A000A505245535320412082
:1043B0004B455920616E6420454E544552000A20F9
:1043C0006E52572074657374205531382070696EB1
:1043D000203620616E642070726573732061206BDB
:1043E0006579000A000A50524553532041204B453D
:1043F0005920616E6420454E544552000A205257A0
:104400002074657374205531382070696E20372010
:10441000616E642070726573732061206B65790032
:104420000A000A50524553532041204B4559206100
:104430006E6420454E544552000A2055313120709B
:10444000696E20323320616E642070726573732050
:1044500061206B6579000A000A5052455353204190
:10446000204B455920616E6420454E544552000A48
:10447000204578745F6D656D202A20564D412E20B1
:1044800070726F626520746F3A20553139207069FF
:104490006E20313020616E6420707265737320610C
:1044A000206B6579000A000A505245535320412081
:1044B0004B455920616E6420454E544552000A20F8
:1044C000564D412D4578745F6D656D20202A205032
:1044D00068695F3220746573742E2070726F626534
:1044E00020746F3A205531352070696E2033206F6B
:1044F000722055372070696E2037000A3D3D3D3DE2
:104500003D3D3D3D3D3D3D3D3D3D3D3D3D3D3D3DDB
:104510003D3D3D3D3D3D3D3D3D3D3D3D3D3D3D3DCB
:104520003D3D3D3D3D3D3D3D3D3D3D3D3D3D3D3DBB
:104530003D3D3D3D3D3D3D0A000A203439313D20A1
:1045400055322070696E2032302074657374000A11
:10455000203439303D2055362070696E20313820A6
:1045600074657374000A2034383D202035313031B1
:104570002043452074657374000A2034373D2020A1
:104580006E522F57205531382070696E2036000A40
:104590002034363D2020522F6E5720553138207060
:1045A000696E2037000A2034353D20205531315FB7
:1045B00070696E32332021282141392A214131325C
:1045C00029000A2034343D2020553139423A204513
:1045D00058545F4D454D202A20564D41000A203445
:1045E000333D20204558545F564D415F50484900A7
:1045F0000A2034323D202052656164205265736583
:1046000074000A2034313D202052656164205068D6
:1046100069000A3D3D3D3D3D3D3D3D3D5661726970
:104620006F7573206C6F6769632072656C61746568
:10463000642074657374733D3D3D3D3D3D3D3D3D9E
:104640003D3D3D3D3D3D3D3D3D3D3D3D3D3D0A57B3
:104650006869636820546573743A0000002100247F
:104660000027002A002D0030003300010100000463
:104670000107010A0100002200250028002B002E5E
:10468000003100340002010000050108010B0100A7
:104690000020002300260029002C002F00320000FB
:1046A00001000003010601090105050505070508CC
:1046B000080808020202020A0A08080404040401A5
:1046C00001010101010101030303030303030304C7
:1046D0000707070C0C0C0C0C0C0C0C020202020657
:1046E000060606060606060B0B0B0B0B0B0B0B0147
:1046F00002102020080810204010204080020102F3
:1047000001080402010102040810204080804020BA
:1047100010080402018004020180402010080402F5
:104720000108040201010204081020408001020473
:10473000081020408000000A0B02090C0D0E08072B
:104740000304010000000000000000000000000061
:104750000000000000000000000000000000000059
:104760000012111000000000000000000000000016
:1047700000000000000000000000000A20416374F7
:10478000697665207472616E736974696F6E206FEB
:1047900066204341312C20726573657474696E67BD
:1047A0002062696A2072656164696E67206F757442
:1047B000707574207265676973746572003D000AD4
:1047C0004352413D2024000A2041637469766520EC
:1047D0007472616E736974696F6E206F66204341F5
:1047E000312C20726573657474696E672062696A22
:1047F0002072656164696E67206F757470757420CE
:104800007265676973746572003D000A4352413DE9
:104810002024000A77616974696E6720666F7220D0
:10482000526573657420746F206265636F6D6520D7
:10483000686967680A003A00546573742044000A86
:10484000746573745F6D656D28312C746573745F66
:104850006164726573732C746573745F61647265EF
:1048600073732C30786666290A000A204D656D6FD7
:104870007279206C6F636174696F6E2042696E613A
:1048800072793A000A204D656D6F7279206C6F6302
:104890006174696F6E3A24000A506C65617365201B
:1048A000656E7465722061647265737320686578E3
:1048B0003A0044373A0044363A0044353A0044342A
:1048C0003A000A4943205538203531303120243010
:1048D0003230302024537475636B20626974730A1C
:1048E000000A0A4943205537203638313020243019
:1048F00030303020537475636B20626974730A0022
:104900000A002020204572726F720020203C2D3E4C
:10491000202020000A20446174612073656E6420A9
:10492000202020202020203C2D3E20202044617487
:10493000612052656365697665640A000A204D65E9
:104940006D6F7279206C6F636174696F6E2042695C
:104950006E6172793A000A204D656D6F7279206C34
:104960006F636174696F6E3A24000A506C656173FD
:104970006520656E7465722061647265737320686A
:1049800065783A000A002020204572726F7200207C
:10499000203C2D3E202020000A20446174612073B9
:1049A000656E6420202020202020203C2D3E2020E9
:1049B00020446174612052656365697665640A000C
:1049C0000A204D656D6F7279206C6F636174696F39
:1049D0006E2042696E6172793A000A204D656D6FF2
:1049E0007279206C6F636174696F6E3A24000A3DBE
:1049F0003D3D3D3D3D3D3D3D3D3D3D3D3D3D3D3DE7
:104A00003D3D3D3D3D3D3D3D3D3D3D3D3D3D3D3DD6
:104A10003D3D3D3D3D3D3D3D3D3D3D3D3D3D3D3DC6
:104A20003D3D3D3D3D3D3D3D3D3D0A576869636827
:104A300020546573743A000A202020202020202072
:104A40002020202020202020202020202020202066
:104A50003078353830302C203078356666662C203A
:104A60005536202032373332204550524F4D2041A9
:104A7000532D323531382D33352028313766662DA8
:104A800031666666202D3137000A20202020202044
:104A90002020202020202020202020202020202016
:104AA00020203078353030302C203078353766662D
:104AB0002C205532202032373332204550524F4D72
:104AC0002041532D323531382D33352028313030C7
:104AD000302D31376666202D313729000A202020FD
:104AE00020202020202020202020202020202020C6
:104AF00020202020203078303230302C2030783088
:104B00003266662C20553820203531303120204344
:104B10004D4F532042617474657279204261636B1A
:104B200065642044342D4437000A202020202020B2
:104B30002020202020202020202020202020202075
:104B400020203078303039302C20307830303933F4
:104B50002C20553131204D43363832312070696177
:104B600020285049413129205531313A20536F6C6A
:104B7000656E6F6964732F536F756E6473202B209D
:104B8000446973706C6179205374726F62652000A0
:104B90000A2020202020202020202020202020202B
:104BA0002020202020202020203078303038382C41
:104BB000203078303038622C20553130204D43364B
:104BC0003832312070696120285049413029205500
:104BD00031303A205377697463686573202B204421
:104BE0006973706C6179202B204C616D7073000AC1
:104BF00020202020202020202020202020202020B5
:104C000020202020202020203078303030302C20F0
:104C10003078303037662C20553720204D433638D9
:104C200031302031323820427974652052616D0074
:104C30000A4D656D6F7279206D61702062616C6CD8
:104C400079204D50552033353A000A3D3D3D3D3DDC
:104C50003D3D3D3D3D3D3D3D3D3D3D3D3D3D3D3D84
:104C60003D3D3D3D3D3D3D3D3D3D3D3D3D3D3D3D74
:104C70003D3D3D3D3D3D3D3D3D3D3D3D3D3D3D3D64
:104C80003D3D3D3D3D3D0A000A2036343D204D6509
:104C90006D6F727920746573742066756E637469C4
:104CA0006F6E206174206C6F636174696F6E000AAF
:104CB0002036333D20537475636B2044617461204A
:104CC0004269742074657374000A2036323D2042B4
:104CD0006974207368696674204D656D6F72792000
:104CE0006C6F636174696F6E2074657374000A2061
:104CF00036313D2046756C6C204D656D6F727920A4
:104D00006C6F636174696F6E2074657374000A3D23
:104D10003D3D3D3D3D3D3D3D52656D6F7665204DD0
:104D2000505520616E6420617474616368207965F8
:104D30006C6C6F7720746F2043313520757070650F
:104D400072206C65673D3D3D3D3D000A3D3D3D3D6A
:104D50003D3D3D3D3D4D656D6F7279206572726FD1
:104D600072732072656C617465642074657374730A
:104D70003D3D3D3D3D3D3D3D3D3D3D3D3D3D3D3D63
:104D80003D3D3D3D3D3D3D00E38C11241FBECFEF39
:104D9000D1E2DEBFCDBF00E00CBF2BE1A6ECB4E159
:104DA00001C01D92AF36B207E1F714E1A0E0B2E016
:104DB000E0E3F4E201E00BBF02C007900D92A63CD5
:104DC000B107D9F716E2C5ECD6E200E006C021979C
:104DD0000109802FFE010E94D68FC43CD10780E0DC
:104DE0000807A9F70E94227F0C9416920C940000E9
:104DF0002F923F924F925F926F927F928F929F92EB
:104E0000AF92BF92CF92DF92EF92FF920F931F93D8
:104E1000CF93DF93CDB7DEB76E970FB6F894DEBFB2
:104E20000FBECDBF8C015B01CE0140960E94D977A9
:104E300089E0EBE7FAE0DE01119601900D928A9588
:104E4000E1F760E083E00E948F7860E08BE00E94F1
:104E50008F780E9498580530110521F082EB92E07E
:104E60000E94FC63A114B10451F08FE892E00E940B
:104E7000FC6364E670E080E090E00E94CB78C801BB
:104E800005979E8F8D8F0930110510F00C944E3CC4
:104E9000F8018827EE58FF4F8F4F0C94D68F64E6A9
:104EA00070E080E090E00E94CB78F894A114B10407
:104EB00011F40C9422321B9BFECF0C9422326CE234
:104EC00071E080E090E00E94CB78F894A114B104E6
:104ED00011F01B9BFECF86B18093D2148091090103
:104EE0008093D31486B18093D41480910901809368
:104EF000D51486B18093D614809109018093D7147C
:104F000086B18093D814809109018093D91486B119
:104F10008093DA14809109018093DB1486B1809329
:104F2000DC14809109018093DD1486B18093DE1436
:104F3000809109018093DF1486B18093E014809101
:104F400009018093E11486B18093E21480910901F4
:104F50008093E31486B18093E414809109018093D7
:104F6000E51486B18093E614809109018093E714DB
:104F700086B18093E814809109018093E91486B189
:104F80008093EA14809109018093EB1486B1809399
:104F9000EC14809109018093ED1486B18093EE1496
:104FA000809109018093EF1486B18093F014809171
:104FB00009018093F11486B18093F2148091090164
:104FC0008093F31486B18093F41480910901809347
:104FD000F51486B18093F614809109018093F7143B
:104FE00086B18093F814809109018093F91486B1F9
:104FF0008093FA14809109018093FB1486B1809309
:10500000FC14809109018093FD1486B18093FE14F5
:10501000809109018093FF1486B1809300158091DF
:1050200009018093011586B18093021580910901D1
:105030008093031586B180930415809109018093B4
:10504000051586B180930615809109018093071597
:1050500086B180930815809109018093091586B166
:1050600080930A158091090180930B1586B1809376
:105070000C158091090180930D1586B180930E1552
:105080008091090180930F1586B18093101580914E
:1050900009018093111586B1809312158091090141
:1050A0008093131586B18093141580910901809324
:1050B000151586B1809316158091090180931715F7
:1050C00086B180931815809109018093191586B1D6
:1050D00080931A158091090180931B1586B18093E6
:1050E0001C158091090180931D1586B180931E15B2
:1050F0008091090180931F1586B1809320158091BE
:1051000009018093211586B18093221580910901B0
:105110008093231586B18093241580910901809393
:10512000251586B180932615809109018093271556
:1051300086B180932815809109018093291586B145
:1051400080932A158091090180932B1586B1809355
:105150002C158091090180932D1586B180932E1511
:105160008091090180932F1586B18093301580912D
:1051700009018093311586B1809332158091090120
:105180008093331586B18093341580910901809303
:10519000351586B1809336158091090180933715B6
:1051A00086B180933815809109018093391586B1B5
:1051B00080933A158091090180933B1586B18093C5
:1051C0003C158091090180933D1586B180933E1571
:1051D0008091090180933F1586B18093401580919D
:1051E00009018093411586B1809342158091090190
:1051F0008093431586B18093441580910901809373
:10520000451586B180934615809109018093471515
:1052100086B180934815809109018093491586B124
:1052200080934A158091090180934B1586B1809334
:105230004C158091090180934D1586B180934E15D0
:105240008091090180934F1586B18093501580910C
:1052500009018093511586B18093521580910901FF
:105260008093531586B180935415809109018093E2
:10527000551586B180935615809109018093571575
:1052800086B180935815809109018093591586B194
:1052900080935A158091090180935B1586B18093A4
:1052A0005C158091090180935D1586B180935E1530
:1052B0008091090180935F1586B18093601580917C
:1052C00009018093611586B180936215809109016F
:1052D0008093631586B18093641580910901809352
:1052E000651586B1809366158091090180936715D5
:1052F00086B180936815809109018093691586B104
:1053000080936A158091090180936B1586B1809313
:105310006C158091090180936D1586B180936E158F
:105320008091090180936F1586B1809370158091EB
:1053300009018093711586B18093721580910901DE
:105340008093731586B180937415809109018093C1
:10535000751586B180937615809109018093771534
:1053600086B180937815809109018093791586B173
:1053700080937A158091090180937B1586B1809383
:105380007C158091090180937D1586B180937E15EF
:105390008091090180937F1586B18093801580915B
:1053A00009018093811586B180938215809109014E
:1053B0008093831586B18093841580910901809331
:1053C000851586B180938615809109018093871594
:1053D00086B180938815809109018093891586B1E3
:1053E00080938A158091090180938B1586B18093F3
:1053F0008C158091090180938D1586B180938E154F
:105400008091090180938F1586B1809390158091CA
:1054100009018093911586B18093921580910901BD
:105420008093931586B180939415809109018093A0
:10543000951586B1809396158091090180939715F3
:1054400086B180939815809109018093991586B152
:1054500080939A158091090180939B1586B1809362
:105460009C158091090180939D1586B180939E15AE
:105470008091090180939F1586B18093A01580913A
:1054800009018093A11586B18093A215809109012D
:105490008093A31586B18093A41580910901809310
:1054A000A51586B18093A615809109018093A71553
:1054B00086B18093A815809109018093A91586B1C2
:1054C0008093AA15809109018093AB1586B18093D2
:1054D000AC15809109018093AD1586B18093AE150E
:1054E000809109018093AF1586B18093B0158091AA
:1054F00009018093B11586B18093B215809109019D
:105500008093B31586B18093B4158091090180937F
:10551000B51586B18093B615809109018093B715B2
:1055200086B18093B815809109018093B91586B131
:105530008093BA15809109018093BB1586B1809341
:10554000BC15809109018093BD1586B18093BE156D
:10555000809109018093BF1586B18093C015809119
:1055600009018093C11586B18093C215809109010C
:105570008093C31586B18093C415809109018093EF
:10558000C51586B18093C615809109018093C71512
:1055900086B18093C815809109018093C91586B1A1
:1055A0008093CA15809109018093CB1586B18093B1
:1055B000CC15809109018093CD1586B18093CE15CD
:1055C000809109018093CF1586B18093D015809189
:1055D00009018093D11586B18093D215809109017C
:1055E0008093D31586B18093D4158091090180935F
:1055F000D51586B18093D615809109018093D71572
:1056000086B18093D815809109018093D91586B110
:105610008093DA15809109018093DB1586B1809320
:10562000DC15809109018093DD1586B18093DE152C
:10563000809109018093DF1586B18093E0158091F8
:1056400009018093E11586B18093E21580910901EB
:105650008093E31586B18093E415809109018093CE
:10566000E51586B18093E615809109018093E715D1
:1056700086B18093E815809109018093E91586B180
:105680008093EA15809109018093EB1586B1809390
:10569000EC15809109018093ED1586B18093EE158C
:1056A000809109018093EF1586B18093F015809168
:1056B00009018093F11586B18093F215809109015B
:1056C0008093F31586B18093F4158091090180933E
:1056D000F51586B18093F615809109018093F71531
:1056E00086B18093F815809109018093F91586B1F0
:1056F0008093FA15809109018093FB1586B1809300
:10570000FC15809109018093FD1586B18093FE15EB
:10571000809109018093FF1586B1809300168091D6
:1057200009018093011686B18093021680910901C8
:105730008093031686B180930416809109018093AB
:10574000051686B18093061680910901809307168D
:1057500086B180930816809109018093091686B15D
:1057600080930A168091090180930B1686B180936D
:105770000C168091090180930D1686B180930E1648
:105780008091090180930F1686B180931016809145
:1057900009018093111686B1809312168091090138
:1057A0008093131686B1809314168091090180931B
:1057B000151686B1809316168091090180931716ED
:1057C00086B180931816809109018093191686B1CD
:1057D00080931A168091090180931B1686B18093DD
:1057E0001C168091090180931D1686B180931E16A8
:1057F0008091090180931F1686B1809320168091B5
:1058000009018093211686B18093221680910901A7
:105810008093231686B1809324168091090180938A
:10582000251686B18093261680910901809327164C
:1058300086B180932816809109018093291686B13C
:1058400080932A168091090180932B1686B180934C
:105850002C168091090180932D1686B180932E1607
:105860008091090180932F1686B180933016809124
:1058700009018093311686B1809332168091090117
:105880008093331686B180933416809109018093FA
:10589000351686B1809336168091090180933716AC
:1058A00086B180933816809109018093391686B1AC
:1058B00080933A168091090180933B1686B18093BC
:1058C0003C168091090180933D1686B180933E1667
:1058D0008091090180933F1686B180934016809194
:1058E00009018093411686B1809342168091090187
:1058F0008093431686B1809344168091090180936A
:10590000451686B18093461680910901809347160B
:1059100086B180934816809109018093491686B11B
:1059200080934A168091090180934B1686B180932B
:105930004C168091090180934D1686B180934E16C6
:105940008091090180934F1686B180935016809103
:1059500009018093511686B18093521680910901F6
:105960008093531686B180935416809109018093D9
:10597000551686B18093561680910901809357166B
:1059800086B180935816809109018093591686B18B
:1059900080935A168091090180935B1686B180939B
:1059A0005C168091090180935D1686B180935E1626
:1059B0008091090180935F1686B180936016809173
:1059C000090180936116E2E6CE2EE6E1DE2E0C940C
:1059D0004E3C6CE271E080E090E00E94CB78F8945D
:1059E000A114B10411F01B9BFECF80B18093D2149F
:1059F00080B18093D31480B18093D41480B180930C
:105A0000D51480B18093D61480B18093D71480B11F
:105A10008093D81480B18093D91480B18093DA1424
:105A200080B18093DB1480B18093DC1480B18093CB
:105A3000DD1480B18093DE1480B18093DF1480B1D7
:105A40008093E01480B18093E11480B18093E214DC
:105A500080B18093E31480B18093E41480B180938B
:105A6000E51480B18093E61480B18093E71480B18F
:105A70008093E81480B18093E91480B18093EA1494
:105A800080B18093EB1480B18093EC1480B180934B
:105A9000ED1480B18093EE1480B18093EF1480B147
:105AA0008093F01480B18093F11480B18093F2144C
:105AB00080B18093F31480B18093F41480B180930B
:105AC000F51480B18093F61480B18093F71480B1FF
:105AD0008093F81480B18093F91480B18093FA1404
